{
  "contractName": "EthMadness",
  "abi": [
    {
      "constant": true,
      "inputs": [],
      "name": "currentState",
      "outputs": [
        {
          "name": "",
          "type": "uint8"
        }
      ],
      "payable": false,
      "stateMutability": "view",
      "type": "function",
      "signature": "0x0c3f6acf"
    },
    {
      "constant": true,
      "inputs": [
        {
          "name": "",
          "type": "uint256"
        }
      ],
      "name": "topThree",
      "outputs": [
        {
          "name": "entryIndex",
          "type": "uint48"
        },
        {
          "name": "score",
          "type": "uint32"
        },
        {
          "name": "difference",
          "type": "uint64"
        },
        {
          "name": "submitter",
          "type": "address"
        }
      ],
      "payable": false,
      "stateMutability": "view",
      "type": "function",
      "signature": "0x25a17545"
    },
    {
      "constant": true,
      "inputs": [
        {
          "name": "",
          "type": "address"
        }
      ],
      "name": "oracleVotes",
      "outputs": [
        {
          "name": "winners",
          "type": "bytes16"
        },
        {
          "name": "scoreA",
          "type": "uint8"
        },
        {
          "name": "scoreB",
          "type": "uint8"
        },
        {
          "name": "isFinal",
          "type": "bool"
        }
      ],
      "payable": false,
      "stateMutability": "view",
      "type": "function",
      "signature": "0x5347f96e"
    },
    {
      "constant": true,
      "inputs": [
        {
          "name": "",
          "type": "uint256"
        }
      ],
      "name": "oracles",
      "outputs": [
        {
          "name": "",
          "type": "address"
        }
      ],
      "payable": false,
      "stateMutability": "view",
      "type": "function",
      "signature": "0x5b69a7d8"
    },
    {
      "constant": false,
      "inputs": [],
      "name": "renounceOwnership",
      "outputs": [],
      "payable": false,
      "stateMutability": "nonpayable",
      "type": "function",
      "signature": "0x715018a6"
    },
    {
      "constant": true,
      "inputs": [],
      "name": "prizeAmount",
      "outputs": [
        {
          "name": "",
          "type": "uint256"
        }
      ],
      "payable": false,
      "stateMutability": "view",
      "type": "function",
      "signature": "0x785fa627"
    },
    {
      "constant": true,
      "inputs": [],
      "name": "owner",
      "outputs": [
        {
          "name": "",
          "type": "address"
        }
      ],
      "payable": false,
      "stateMutability": "view",
      "type": "function",
      "signature": "0x8da5cb5b"
    },
    {
      "constant": true,
      "inputs": [],
      "name": "isOwner",
      "outputs": [
        {
          "name": "",
          "type": "bool"
        }
      ],
      "payable": false,
      "stateMutability": "view",
      "type": "function",
      "signature": "0x8f32d59b"
    },
    {
      "constant": true,
      "inputs": [
        {
          "name": "",
          "type": "uint256"
        }
      ],
      "name": "entries",
      "outputs": [
        {
          "name": "submitter",
          "type": "address"
        },
        {
          "name": "entryIndex",
          "type": "uint48"
        }
      ],
      "payable": false,
      "stateMutability": "view",
      "type": "function",
      "signature": "0xb30906d4"
    },
    {
      "constant": true,
      "inputs": [],
      "name": "prizeERC20TokenAddress",
      "outputs": [
        {
          "name": "",
          "type": "address"
        }
      ],
      "payable": false,
      "stateMutability": "view",
      "type": "function",
      "signature": "0xdf4de07c"
    },
    {
      "constant": true,
      "inputs": [
        {
          "name": "",
          "type": "uint256"
        }
      ],
      "name": "transitionTimes",
      "outputs": [
        {
          "name": "",
          "type": "uint256"
        }
      ],
      "payable": false,
      "stateMutability": "view",
      "type": "function",
      "signature": "0xe9d43e1b"
    },
    {
      "constant": false,
      "inputs": [
        {
          "name": "newOwner",
          "type": "address"
        }
      ],
      "name": "transferOwnership",
      "outputs": [],
      "payable": false,
      "stateMutability": "nonpayable",
      "type": "function",
      "signature": "0xf2fde38b"
    },
    {
      "constant": true,
      "inputs": [],
      "name": "finalResult",
      "outputs": [
        {
          "name": "winners",
          "type": "bytes16"
        },
        {
          "name": "scoreA",
          "type": "uint8"
        },
        {
          "name": "scoreB",
          "type": "uint8"
        },
        {
          "name": "isFinal",
          "type": "bool"
        }
      ],
      "payable": false,
      "stateMutability": "view",
      "type": "function",
      "signature": "0xf3a8286f"
    },
    {
      "inputs": [
        {
          "name": "times",
          "type": "uint256[]"
        },
        {
          "name": "erc20Token",
          "type": "address"
        },
        {
          "name": "erc20Amount",
          "type": "uint256"
        }
      ],
      "payable": false,
      "stateMutability": "nonpayable",
      "type": "constructor",
      "signature": "constructor"
    },
    {
      "anonymous": false,
      "inputs": [
        {
          "indexed": true,
          "name": "submitter",
          "type": "address"
        },
        {
          "indexed": true,
          "name": "entryCompressed",
          "type": "uint256"
        },
        {
          "indexed": true,
          "name": "entryIndex",
          "type": "uint48"
        },
        {
          "indexed": false,
          "name": "bracketName",
          "type": "string"
        }
      ],
      "name": "EntrySubmitted",
      "type": "event",
      "signature": "0xdd587a5264e6486e7e7bd14d89da14e1db02b5f63b4f84ac0e657106d7722ad1"
    },
    {
      "anonymous": false,
      "inputs": [
        {
          "indexed": true,
          "name": "previousOwner",
          "type": "address"
        },
        {
          "indexed": true,
          "name": "newOwner",
          "type": "address"
        }
      ],
      "name": "OwnershipTransferred",
      "type": "event",
      "signature": "0x8be0079c531659141344cd1fd0a4f28419497f9722a3daafe3b4186f6b6457e0"
    },
    {
      "constant": true,
      "inputs": [],
      "name": "getEntryCount",
      "outputs": [
        {
          "name": "",
          "type": "uint256"
        }
      ],
      "payable": false,
      "stateMutability": "view",
      "type": "function",
      "signature": "0x7a360e65"
    },
    {
      "constant": true,
      "inputs": [],
      "name": "getOracleCount",
      "outputs": [
        {
          "name": "",
          "type": "uint256"
        }
      ],
      "payable": false,
      "stateMutability": "view",
      "type": "function",
      "signature": "0x3f4e4251"
    },
    {
      "constant": true,
      "inputs": [],
      "name": "getTransitionTimes",
      "outputs": [
        {
          "name": "",
          "type": "uint256"
        },
        {
          "name": "",
          "type": "uint256"
        },
        {
          "name": "",
          "type": "uint256"
        },
        {
          "name": "",
          "type": "uint256"
        }
      ],
      "payable": false,
      "stateMutability": "view",
      "type": "function",
      "signature": "0xb4c9aee2"
    },
    {
      "constant": true,
      "inputs": [
        {
          "name": "picksOrResults",
          "type": "bytes16"
        }
      ],
      "name": "arePicksOrResultsValid",
      "outputs": [
        {
          "name": "",
          "type": "bool"
        }
      ],
      "payable": false,
      "stateMutability": "pure",
      "type": "function",
      "signature": "0x82545026"
    },
    {
      "constant": false,
      "inputs": [
        {
          "name": "picks",
          "type": "bytes16"
        },
        {
          "name": "scoreA",
          "type": "uint64"
        },
        {
          "name": "scoreB",
          "type": "uint64"
        },
        {
          "name": "bracketName",
          "type": "string"
        }
      ],
      "name": "submitEntry",
      "outputs": [],
      "payable": false,
      "stateMutability": "nonpayable",
      "type": "function",
      "signature": "0x5dfa3e08"
    },
    {
      "constant": false,
      "inputs": [
        {
          "name": "oracle",
          "type": "address"
        }
      ],
      "name": "addOracle",
      "outputs": [],
      "payable": false,
      "stateMutability": "nonpayable",
      "type": "function",
      "signature": "0xdf5dd1a5"
    },
    {
      "constant": false,
      "inputs": [
        {
          "name": "amount",
          "type": "uint256"
        }
      ],
      "name": "refundRemaining",
      "outputs": [],
      "payable": false,
      "stateMutability": "nonpayable",
      "type": "function",
      "signature": "0x980d4ec6"
    },
    {
      "constant": false,
      "inputs": [
        {
          "name": "oracleIndex",
          "type": "uint256"
        },
        {
          "name": "winners",
          "type": "bytes16"
        },
        {
          "name": "scoreA",
          "type": "uint8"
        },
        {
          "name": "scoreB",
          "type": "uint8"
        }
      ],
      "name": "submitOracleVote",
      "outputs": [],
      "payable": false,
      "stateMutability": "nonpayable",
      "type": "function",
      "signature": "0x823445fa"
    },
    {
      "constant": false,
      "inputs": [
        {
          "name": "winners",
          "type": "bytes16"
        },
        {
          "name": "scoreA",
          "type": "uint8"
        },
        {
          "name": "scoreB",
          "type": "uint8"
        }
      ],
      "name": "closeOracleVoting",
      "outputs": [],
      "payable": false,
      "stateMutability": "nonpayable",
      "type": "function",
      "signature": "0xc104688c"
    },
    {
      "constant": false,
      "inputs": [],
      "name": "markTournamentInProgress",
      "outputs": [],
      "payable": false,
      "stateMutability": "nonpayable",
      "type": "function",
      "signature": "0x114c7427"
    },
    {
      "constant": false,
      "inputs": [],
      "name": "markTournamentFinished",
      "outputs": [],
      "payable": false,
      "stateMutability": "nonpayable",
      "type": "function",
      "signature": "0xecd869a7"
    },
    {
      "constant": false,
      "inputs": [],
      "name": "closeContestAndPayWinners",
      "outputs": [],
      "payable": false,
      "stateMutability": "nonpayable",
      "type": "function",
      "signature": "0x4f25f7fd"
    },
    {
      "constant": false,
      "inputs": [
        {
          "name": "entryCompressed",
          "type": "uint256"
        }
      ],
      "name": "claimTopEntry",
      "outputs": [],
      "payable": false,
      "stateMutability": "nonpayable",
      "type": "function",
      "signature": "0x9ec31bba"
    }
  ],
  "bytecode": "0x608060405260008060146101000a81548165ffffffffffff021916908365ffffffffffff1602179055503480156200003657600080fd5b506040516200431c3803806200431c833981018060405260608110156200005c57600080fd5b8101908080516401000000008111156200007557600080fd5b828101905060208101848111156200008c57600080fd5b8151856020820283011164010000000082111715620000aa57600080fd5b50509291906020018051906020019092919080519060200190929190505050336000806101000a81548173ffffffffffffffffffffffffffffffffffffffff021916908373ffffffffffffffffffffffffffffffffffffffff1602179055506000809054906101000a900473ffffffffffffffffffffffffffffffffffffffff1673ffffffffffffffffffffffffffffffffffffffff16600073ffffffffffffffffffffffffffffffffffffffff167f8be0079c531659141344cd1fd0a4f28419497f9722a3daafe3b4186f6b6457e060405160405180910390a36020604051908101604052803373ffffffffffffffffffffffffffffffffffffffff1673ffffffffffffffffffffffffffffffffffffffff168152506005906001620001d392919062000352565b5081600d60006101000a81548173ffffffffffffffffffffffffffffffffffffffff021916908373ffffffffffffffffffffffffffffffffffffffff16021790555080600e81905550600483511415156200022d57600080fd5b8260008151811015156200023d57fe5b9060200190602002015160026000600160048111156200025957fe5b8152602001908152602001600020819055508260018151811015156200027b57fe5b9060200190602002015160026000600260048111156200029757fe5b815260200190815260200160002081905550826002815181101515620002b957fe5b906020019060200201516002600060036004811115620002d557fe5b815260200190815260200160002081905550826003815181101515620002f757fe5b90602001906020020151600260006004808111156200031257fe5b8152602001908152602001600020819055506000600360006101000a81548160ff021916908360048111156200034457fe5b021790555050505062000427565b828054828255906000526020600020908101928215620003ce579160200282015b82811115620003cd5782518260006101000a81548173ffffffffffffffffffffffffffffffffffffffff021916908373ffffffffffffffffffffffffffffffffffffffff1602179055509160200191906001019062000373565b5b509050620003dd9190620003e1565b5090565b6200042491905b808211156200042057600081816101000a81549073ffffffffffffffffffffffffffffffffffffffff021916905550600101620003e8565b5090565b90565b613ee580620004376000396000f3fe608060405260043610610154576000357c0100000000000000000000000000000000000000000000000000000000900463ffffffff1680630c3f6acf14610159578063114c74271461019257806325a17545146101a95780633f4e4251146102695780634f25f7fd146102945780635347f96e146102ab5780635b69a7d81461035b5780635dfa3e08146103d6578063715018a6146104e3578063785fa627146104fa5780637a360e6514610525578063823445fa1461055057806382545026146105c25780638da5cb5b146106285780638f32d59b1461067f578063980d4ec6146106ae5780639ec31bba146106e9578063b30906d414610724578063b4c9aee2146107b6578063c104688c146107f6578063df4de07c1461085e578063df5dd1a5146108b5578063e9d43e1b14610906578063ecd869a714610955578063f2fde38b1461096c578063f3a8286f146109bd575b600080fd5b34801561016557600080fd5b5061016e610a33565b6040518082600481111561017e57fe5b60ff16815260200191505060405180910390f35b34801561019e57600080fd5b506101a7610a46565b005b3480156101b557600080fd5b506101e2600480360360208110156101cc57600080fd5b8101908080359060200190929190505050610c90565b604051808565ffffffffffff1665ffffffffffff1681526020018463ffffffff1663ffffffff1681526020018367ffffffffffffffff1667ffffffffffffffff1681526020018273ffffffffffffffffffffffffffffffffffffffff1673ffffffffffffffffffffffffffffffffffffffff16815260200194505050505060405180910390f35b34801561027557600080fd5b5061027e610d1b565b6040518082815260200191505060405180910390f35b3480156102a057600080fd5b506102a9610d28565b005b3480156102b757600080fd5b506102fa600480360360208110156102ce57600080fd5b81019080803573ffffffffffffffffffffffffffffffffffffffff169060200190929190505050611377565b60405180856fffffffffffffffffffffffffffffffff19166fffffffffffffffffffffffffffffffff191681526020018460ff1660ff1681526020018360ff1660ff1681526020018215151515815260200194505050505060405180910390f35b34801561036757600080fd5b506103946004803603602081101561037e57600080fd5b81019080803590602001909291905050506113eb565b604051808273ffffffffffffffffffffffffffffffffffffffff1673ffffffffffffffffffffffffffffffffffffffff16815260200191505060405180910390f35b3480156103e257600080fd5b506104e1600480360360808110156103f957600080fd5b8101908080356fffffffffffffffffffffffffffffffff19169060200190929190803567ffffffffffffffff169060200190929190803567ffffffffffffffff1690602001909291908035906020019064010000000081111561045b57600080fd5b82018360208201111561046d57600080fd5b8035906020019184600183028401116401000000008311171561048f57600080fd5b91908080601f016020809104026020016040519081016040528093929190818152602001838380828437600081840152601f19601f820116905080830192505050505050509192919290505050611429565b005b3480156104ef57600080fd5b506104f86118e0565b005b34801561050657600080fd5b5061050f6119b2565b6040518082815260200191505060405180910390f35b34801561053157600080fd5b5061053a6119b8565b6040518082815260200191505060405180910390f35b34801561055c57600080fd5b506105c06004803603608081101561057357600080fd5b810190808035906020019092919080356fffffffffffffffffffffffffffffffff19169060200190929190803560ff169060200190929190803560ff1690602001909291905050506119db565b005b3480156105ce57600080fd5b5061060e600480360360208110156105e557600080fd5b8101908080356fffffffffffffffffffffffffffffffff19169060200190929190505050611d20565b604051808215151515815260200191505060405180910390f35b34801561063457600080fd5b5061063d611da1565b604051808273ffffffffffffffffffffffffffffffffffffffff1673ffffffffffffffffffffffffffffffffffffffff16815260200191505060405180910390f35b34801561068b57600080fd5b50610694611dca565b604051808215151515815260200191505060405180910390f35b3480156106ba57600080fd5b506106e7600480360360208110156106d157600080fd5b8101908080359060200190929190505050611e21565b005b3480156106f557600080fd5b506107226004803603602081101561070c57600080fd5b810190808035906020019092919050505061200a565b005b34801561073057600080fd5b5061075d6004803603602081101561074757600080fd5b81019080803590602001909291905050506121d6565b604051808373ffffffffffffffffffffffffffffffffffffffff1673ffffffffffffffffffffffffffffffffffffffff1681526020018265ffffffffffff1665ffffffffffff1681526020019250505060405180910390f35b3480156107c257600080fd5b506107cb61222c565b6040518085815260200184815260200183815260200182815260200194505050505060405180910390f35b34801561080257600080fd5b5061085c6004803603606081101561081957600080fd5b8101908080356fffffffffffffffffffffffffffffffff19169060200190929190803560ff169060200190929190803560ff1690602001909291905050506122bf565b005b34801561086a57600080fd5b50610873612669565b604051808273ffffffffffffffffffffffffffffffffffffffff1673ffffffffffffffffffffffffffffffffffffffff16815260200191505060405180910390f35b3480156108c157600080fd5b50610904600480360360208110156108d857600080fd5b81019080803573ffffffffffffffffffffffffffffffffffffffff16906020019092919050505061268f565b005b34801561091257600080fd5b5061093f6004803603602081101561092957600080fd5b810190808035906020019092919050505061284e565b6040518082815260200191505060405180910390f35b34801561096157600080fd5b5061096a612866565b005b34801561097857600080fd5b506109bb6004803603602081101561098f57600080fd5b81019080803573ffffffffffffffffffffffffffffffffffffffff169060200190929190505050612872565b005b3480156109c957600080fd5b506109d2612891565b60405180856fffffffffffffffffffffffffffffffff19166fffffffffffffffffffffffffffffffff191681526020018460ff1660ff1681526020018360ff1660ff1681526020018215151515815260200194505050505060405180910390f35b600360009054906101000a900460ff1681565b610a5060016128f3565b6000600580549050111515610af3576040517f08c379a00000000000000000000000000000000000000000000000000000000081526004018080602001828103825260268152602001807f4d7573742068617665206174206c656173742031206f7261636c65207265676981526020017f737465726564000000000000000000000000000000000000000000000000000081525060400191505060405180910390fd5b6000600d60009054906101000a900473ffffffffffffffffffffffffffffffffffffffff169050600e548173ffffffffffffffffffffffffffffffffffffffff166370a08231306040518263ffffffff167c0100000000000000000000000000000000000000000000000000000000028152600401808273ffffffffffffffffffffffffffffffffffffffff1673ffffffffffffffffffffffffffffffffffffffff16815260200191505060206040518083038186803b158015610bb657600080fd5b505afa158015610bca573d6000803e3d6000fd5b505050506040513d6020811015610be057600080fd5b810190808051906020019092919050505010151515610c8d576040517f08c379a00000000000000000000000000000000000000000000000000000000081526004018080602001828103825260248152602001807f4d757374206861766520612062616c616e636520696e207468697320636f6e7481526020017f726163740000000000000000000000000000000000000000000000000000000081525060400191505060405180910390fd5b50565b600781600381101515610c9f57fe5b600202016000915090508060000160009054906101000a900465ffffffffffff16908060000160069054906101000a900463ffffffff169080600001600a9054906101000a900467ffffffffffffffff16908060010160009054906101000a900473ffffffffffffffffffffffffffffffffffffffff16905084565b6000600580549050905090565b610d3260046128f3565b600073ffffffffffffffffffffffffffffffffffffffff1660076000600381101515610d5a57fe5b6002020160010160009054906101000a900473ffffffffffffffffffffffffffffffffffffffff1673ffffffffffffffffffffffffffffffffffffffff1614151515610e0e576040517f08c379a00000000000000000000000000000000000000000000000000000000081526004018080602001828103825260118152602001807f4e6f7420656e6f75676820636c61696d7300000000000000000000000000000081525060200191505060405180910390fd5b600073ffffffffffffffffffffffffffffffffffffffff1660076001600381101515610e3657fe5b6002020160010160009054906101000a900473ffffffffffffffffffffffffffffffffffffffff1673ffffffffffffffffffffffffffffffffffffffff1614151515610eea576040517f08c379a00000000000000000000000000000000000000000000000000000000081526004018080602001828103825260118152602001807f4e6f7420656e6f75676820636c61696d7300000000000000000000000000000081525060200191505060405180910390fd5b600073ffffffffffffffffffffffffffffffffffffffff1660076002600381101515610f1257fe5b6002020160010160009054906101000a900473ffffffffffffffffffffffffffffffffffffffff1673ffffffffffffffffffffffffffffffffffffffff1614151515610fc6576040517f08c379a00000000000000000000000000000000000000000000000000000000081526004018080602001828103825260118152602001807f4e6f7420656e6f75676820636c61696d7300000000000000000000000000000081525060200191505060405180910390fd5b600060646046600e5402811515610fd957fe5b049050600060646014600e5402811515610fef57fe5b04905060006064600a600e540281151561100557fe5b0490506000600d60009054906101000a900473ffffffffffffffffffffffffffffffffffffffff1690508073ffffffffffffffffffffffffffffffffffffffff1663a9059cbb6007600060038110151561105b57fe5b6002020160010160009054906101000a900473ffffffffffffffffffffffffffffffffffffffff16866040518363ffffffff167c0100000000000000000000000000000000000000000000000000000000028152600401808373ffffffffffffffffffffffffffffffffffffffff1673ffffffffffffffffffffffffffffffffffffffff16815260200182815260200192505050602060405180830381600087803b15801561110957600080fd5b505af115801561111d573d6000803e3d6000fd5b505050506040513d602081101561113357600080fd5b8101908080519060200190929190505050508073ffffffffffffffffffffffffffffffffffffffff1663a9059cbb6007600160038110151561117157fe5b6002020160010160009054906101000a900473ffffffffffffffffffffffffffffffffffffffff16856040518363ffffffff167c0100000000000000000000000000000000000000000000000000000000028152600401808373ffffffffffffffffffffffffffffffffffffffff1673ffffffffffffffffffffffffffffffffffffffff16815260200182815260200192505050602060405180830381600087803b15801561121f57600080fd5b505af1158015611233573d6000803e3d6000fd5b505050506040513d602081101561124957600080fd5b8101908080519060200190929190505050508073ffffffffffffffffffffffffffffffffffffffff1663a9059cbb6007600260038110151561128757fe5b6002020160010160009054906101000a900473ffffffffffffffffffffffffffffffffffffffff16846040518363ffffffff167c0100000000000000000000000000000000000000000000000000000000028152600401808373ffffffffffffffffffffffffffffffffffffffff1673ffffffffffffffffffffffffffffffffffffffff16815260200182815260200192505050602060405180830381600087803b15801561133557600080fd5b505af1158015611349573d6000803e3d6000fd5b505050506040513d602081101561135f57600080fd5b81019080805190602001909291905050505050505050565b60046020528060005260406000206000915090508060000160009054906101000a900470010000000000000000000000000000000002908060000160109054906101000a900460ff16908060000160119054906101000a900460ff16908060000160129054906101000a900460ff16905084565b6005818154811015156113fa57fe5b906000526020600020016000915054906101000a900473ffffffffffffffffffffffffffffffffffffffff1681565b6000600481111561143657fe5b600360009054906101000a900460ff16600481111561145157fe5b1415156114ec576040517f08c379a00000000000000000000000000000000000000000000000000000000081526004018080602001828103825260258152602001807f4d75737420626520696e20746865206f70656e20666f7220656e74726965732081526020017f737461746500000000000000000000000000000000000000000000000000000081525060400191505060405180910390fd5b6114f584611d20565b1515611569576040517f08c379a00000000000000000000000000000000000000000000000000000000081526004018080602001828103825260208152602001807f54686520737570706c696564207069636b7320617265206e6f742076616c696481525060200191505060405180910390fd5b600078010000000000000000000000000000000000000000000000008467ffffffffffffffff1602905060007001000000000000000000000000000000008467ffffffffffffffff1602905060008670010000000000000000000000000000000090046fffffffffffffffffffffffffffffffff169050600081838517179050600073ffffffffffffffffffffffffffffffffffffffff166001600083815260200190815260200160002060000160009054906101000a900473ffffffffffffffffffffffffffffffffffffffff1673ffffffffffffffffffffffffffffffffffffffff161415156116e9576040517f08c379a00000000000000000000000000000000000000000000000000000000081526004018080602001828103825260358152602001807f5468697320657861637420627261636b657420262073636f726520686173206181526020017f6c7265616479206265656e207375626d6974746564000000000000000000000081525060400191505060405180910390fd5b600060149054906101000a900465ffffffffffff1665ffffffffffff16813373ffffffffffffffffffffffffffffffffffffffff167fdd587a5264e6486e7e7bd14d89da14e1db02b5f63b4f84ac0e657106d7722ad1886040518080602001828103825283818151815260200191508051906020019080838360005b83811015611780578082015181840152602081019050611765565b50505050905090810190601f1680156117ad5780820380516001836020036101000a031916815260200191505b509250505060405180910390a46117c2613de6565b60408051908101604052803373ffffffffffffffffffffffffffffffffffffffff168152602001600060149054906101000a900465ffffffffffff1665ffffffffffff168152509050806001600084815260200190815260200160002060008201518160000160006101000a81548173ffffffffffffffffffffffffffffffffffffffff021916908373ffffffffffffffffffffffffffffffffffffffff16021790555060208201518160000160146101000a81548165ffffffffffff021916908365ffffffffffff1602179055509050506000601481819054906101000a900465ffffffffffff168092919060010191906101000a81548165ffffffffffff021916908365ffffffffffff16021790555050505050505050505050565b6118e8611dca565b15156118f357600080fd5b600073ffffffffffffffffffffffffffffffffffffffff166000809054906101000a900473ffffffffffffffffffffffffffffffffffffffff1673ffffffffffffffffffffffffffffffffffffffff167f8be0079c531659141344cd1fd0a4f28419497f9722a3daafe3b4186f6b6457e060405160405180910390a360008060006101000a81548173ffffffffffffffffffffffffffffffffffffffff021916908373ffffffffffffffffffffffffffffffffffffffff160217905550565b600e5481565b60008060149054906101000a900465ffffffffffff1665ffffffffffff16905090565b600260048111156119e857fe5b600360009054906101000a900460ff166004811115611a0357fe5b141515611a9e576040517f08c379a00000000000000000000000000000000000000000000000000000000081526004018080602001828103825260248152602001807f4d75737420626520696e2077616974696e6720666f72206f7261636c6573207381526020017f746174650000000000000000000000000000000000000000000000000000000081525060400191505060405180910390fd5b3373ffffffffffffffffffffffffffffffffffffffff16600585815481101515611ac457fe5b9060005260206000200160009054906101000a900473ffffffffffffffffffffffffffffffffffffffff1673ffffffffffffffffffffffffffffffffffffffff16141515611b7a576040517f08c379a00000000000000000000000000000000000000000000000000000000081526004018080602001828103825260128152602001807f57726f6e67206f7261636c6520696e646578000000000000000000000000000081525060200191505060405180910390fd5b611b8383611d20565b1515611bf7576040517f08c379a00000000000000000000000000000000000000000000000000000000081526004018080602001828103825260158152602001807f526573756c747320617265206e6f742076616c6964000000000000000000000081525060200191505060405180910390fd5b608060405190810160405280846fffffffffffffffffffffffffffffffff191681526020018360ff1681526020018260ff16815260200160011515815250600460003373ffffffffffffffffffffffffffffffffffffffff1673ffffffffffffffffffffffffffffffffffffffff16815260200190815260200160002060008201518160000160006101000a8154816fffffffffffffffffffffffffffffffff02191690837001000000000000000000000000000000009004021790555060208201518160000160106101000a81548160ff021916908360ff16021790555060408201518160000160116101000a81548160ff021916908360ff16021790555060608201518160000160126101000a81548160ff02191690831515021790555090505050505050565b600080600090505b603f8160ff161015611d96576000611d408483612a73565b90506002816fffffffffffffffffffffffffffffffff1614158015611d7857506001816fffffffffffffffffffffffffffffffff1614155b15611d8857600092505050611d9c565b508080600101915050611d28565b50600190505b919050565b60008060009054906101000a900473ffffffffffffffffffffffffffffffffffffffff16905090565b60008060009054906101000a900473ffffffffffffffffffffffffffffffffffffffff1673ffffffffffffffffffffffffffffffffffffffff163373ffffffffffffffffffffffffffffffffffffffff1614905090565b611e29611dca565b1515611e3457600080fd5b60006004811115611e4157fe5b600360009054906101000a900460ff166004811115611e5c57fe5b1480611e8c5750600480811115611e6f57fe5b600360009054906101000a900460ff166004811115611e8a57fe5b145b1515611f00576040517f08c379a00000000000000000000000000000000000000000000000000000000081526004018080602001828103825260198152602001807f4d75737420626520616363657074696e6720656e74726965730000000000000081525060200191505060405180910390fd5b6000600d60009054906101000a900473ffffffffffffffffffffffffffffffffffffffff1690508073ffffffffffffffffffffffffffffffffffffffff1663a9059cbb33846040518363ffffffff167c0100000000000000000000000000000000000000000000000000000000028152600401808373ffffffffffffffffffffffffffffffffffffffff1673ffffffffffffffffffffffffffffffffffffffff16815260200182815260200192505050602060405180830381600087803b158015611fca57600080fd5b505af1158015611fde573d6000803e3d6000fd5b505050506040513d6020811015611ff457600080fd5b8101908080519060200190929190505050505050565b6003600481111561201757fe5b600360009054906101000a900460ff16600481111561203257fe5b1415156120cd576040517f08c379a00000000000000000000000000000000000000000000000000000000081526004018080602001828103825260288152602001807f4d75737420626520696e207468652077616974696e6720666f722077696e6e6581526020017f727320737461746500000000000000000000000000000000000000000000000081525060400191505060405180910390fd5b600660000160129054906101000a900460ff16151561217a576040517f08c379a00000000000000000000000000000000000000000000000000000000081526004018080602001828103825260288152602001807f5468652066696e616c20726573756c74206d757374206265206d61726b65642081526020017f61732066696e616c00000000000000000000000000000000000000000000000081525060400191505060405180910390fd5b6121d281600660000160009054906101000a900470010000000000000000000000000000000002600660000160109054906101000a900460ff1660ff16600660000160119054906101000a900460ff1660ff16612b07565b5050565b60016020528060005260406000206000915090508060000160009054906101000a900473ffffffffffffffffffffffffffffffffffffffff16908060000160149054906101000a900465ffffffffffff16905082565b600080600080600260006001600481111561224357fe5b815260200190815260200160002054600260006002600481111561226357fe5b815260200190815260200160002054600260006003600481111561228357fe5b815260200190815260200160002054600260006004808111156122a257fe5b815260200190815260200160002054935093509350935090919293565b600260048111156122cc57fe5b600360009054906101000a900460ff1660048111156122e757fe5b1415156122f357600080fd5b600080905060008090505b6005805490508110156124bb57612313613e1e565b6004600060058481548110151561232657fe5b9060005260206000200160009054906101000a900473ffffffffffffffffffffffffffffffffffffffff1673ffffffffffffffffffffffffffffffffffffffff1673ffffffffffffffffffffffffffffffffffffffff168152602001908152602001600020608060405190810160405290816000820160009054906101000a9004700100000000000000000000000000000000026fffffffffffffffffffffffffffffffff19166fffffffffffffffffffffffffffffffff191681526020016000820160109054906101000a900460ff1660ff1660ff1681526020016000820160119054906101000a900460ff1660ff1660ff1681526020016000820160129054906101000a900460ff1615151515815250509050806060015180156124755750856fffffffffffffffffffffffffffffffff191681600001516fffffffffffffffffffffffffffffffff1916145b801561248a57508460ff16816020015160ff16145b801561249f57508360ff16816040015160ff16145b156124ad5782806001019350505b5080806001019150506122fe565b506000600580549050606483028115156124d157fe5b049050604681111515612572576040517f08c379a00000000000000000000000000000000000000000000000000000000081526004018080602001828103825260338152602001807f546f20636c6f7365206f7261636c6520766f74696e672c203e20373025206f6681526020017f206f7261636c6573206d7573742061677265650000000000000000000000000081525060400191505060405180910390fd5b61257c60036128f3565b608060405190810160405280866fffffffffffffffffffffffffffffffff191681526020018560ff1681526020018460ff16815260200160011515815250600660008201518160000160006101000a8154816fffffffffffffffffffffffffffffffff02191690837001000000000000000000000000000000009004021790555060208201518160000160106101000a81548160ff021916908360ff16021790555060408201518160000160116101000a81548160ff021916908360ff16021790555060608201518160000160126101000a81548160ff0219169083151502179055509050505050505050565b600d60009054906101000a900473ffffffffffffffffffffffffffffffffffffffff1681565b612697611dca565b15156126a257600080fd5b600060048111156126af57fe5b600360009054906101000a900460ff1660048111156126ca57fe5b14151561273f576040517f08c379a00000000000000000000000000000000000000000000000000000000081526004018080602001828103825260198152602001807f4d75737420626520616363657074696e6720656e74726965730000000000000081525060200191505060405180910390fd5b6001600a036005805490501015156127e5576040517f08c379a00000000000000000000000000000000000000000000000000000000081526004018080602001828103825260278152602001807f4d757374206265206c657373207468616e206d6178206e756d626572206f662081526020017f6f7261636c65730000000000000000000000000000000000000000000000000081525060400191505060405180910390fd5b60058190806001815401808255809150509060018203906000526020600020016000909192909190916101000a81548173ffffffffffffffffffffffffffffffffffffffff021916908373ffffffffffffffffffffffffffffffffffffffff1602179055505050565b60026020528060005260406000206000915090505481565b61287060026128f3565b565b61287a611dca565b151561288557600080fd5b61288e816137e5565b50565b60068060000160009054906101000a900470010000000000000000000000000000000002908060000160109054906101000a900460ff16908060000160119054906101000a900460ff16908060000160129054906101000a900460ff16905084565b6001600360009054906101000a900460ff16600481111561291057fe5b0181600481111561291d57fe5b141515612992576040517f08c379a000000000000000000000000000000000000000000000000000000000815260040180806020018281038252601b8152602001807f43616e206f6e6c7920616476616e63652073746174652062792031000000000081525060200191505060405180910390fd5b600260008260048111156129a257fe5b81526020019081526020016000205442111515612a4d576040517f08c379a00000000000000000000000000000000000000000000000000000000081526004018080602001828103825260238152602001807f5472616e736974696f6e2074696d65206861736e27742068617070656e65642081526020017f796574000000000000000000000000000000000000000000000000000000000081525060400191505060405180910390fd5b80600360006101000a81548160ff02191690836004811115612a6b57fe5b021790555050565b6000806002830260ff1660026fffffffffffffffffffffffffffffffff160a60030290506000818570010000000000000000000000000000000090041690506002840260ff1660026fffffffffffffffffffffffffffffffff160a6fffffffffffffffffffffffffffffffff16816fffffffffffffffffffffffffffffffff16811515612afc57fe5b049250505092915050565b600060036004811115612b1657fe5b600360009054906101000a900460ff166004811115612b3157fe5b141515612bcc576040517f08c379a00000000000000000000000000000000000000000000000000000000081526004018080602001828103825260278152602001807f4d75737420626520696e207468652077616974696e6720666f7220636c61696d81526020017f732073746174650000000000000000000000000000000000000000000000000081525060400191505060405180910390fd5b600073ffffffffffffffffffffffffffffffffffffffff166001600087815260200190815260200160002060000160009054906101000a900473ffffffffffffffffffffffffffffffffffffffff1673ffffffffffffffffffffffffffffffffffffffff1614151515612ccd576040517f08c379a000000000000000000000000000000000000000000000000000000000815260040180806020018281038252602b8152602001807f54686520656e747279206d75737420686176652061637475616c6c792062656581526020017f6e207375626d697474656400000000000000000000000000000000000000000081525060400191505060405180910390fd5b60006fffffffffffffffffffffffffffffffff8616700100000000000000000000000000000000029050600070010000000000000000000000000000000087811515612d1557fe5b049050600067ffffffffffffffff82169050780100000000000000000000000000000000000000000000000088811515612d4b57fe5b049150600067ffffffffffffffff831690506000612d69858a6138df565b90506000612d7984848b8b613a5c565b9050612d83613e62565b608060405190810160405280600160008f815260200190815260200160002060000160149054906101000a900465ffffffffffff1665ffffffffffff1681526020018463ffffffff1681526020018367ffffffffffffffff168152602001600160008f815260200190815260200160002060000160009054906101000a900473ffffffffffffffffffffffffffffffffffffffff1673ffffffffffffffffffffffffffffffffffffffff168152509050612f368160076000600381101515612e4757fe5b60020201608060405190810160405290816000820160009054906101000a900465ffffffffffff1665ffffffffffff1665ffffffffffff1681526020016000820160069054906101000a900463ffffffff1663ffffffff1663ffffffff16815260200160008201600a9054906101000a900467ffffffffffffffff1667ffffffffffffffff1667ffffffffffffffff1681526020016001820160009054906101000a900473ffffffffffffffffffffffffffffffffffffffff1673ffffffffffffffffffffffffffffffffffffffff1673ffffffffffffffffffffffffffffffffffffffff1681525050613ac5565b156132b25760076001600381101515612f4b57fe5b6002020160076002600381101515612f5f57fe5b600202016000820160009054906101000a900465ffffffffffff168160000160006101000a81548165ffffffffffff021916908365ffffffffffff1602179055506000820160069054906101000a900463ffffffff168160000160066101000a81548163ffffffff021916908363ffffffff16021790555060008201600a9054906101000a900467ffffffffffffffff1681600001600a6101000a81548167ffffffffffffffff021916908367ffffffffffffffff1602179055506001820160009054906101000a900473ffffffffffffffffffffffffffffffffffffffff168160010160006101000a81548173ffffffffffffffffffffffffffffffffffffffff021916908373ffffffffffffffffffffffffffffffffffffffff1602179055509050506007600060038110151561309457fe5b60020201600760016003811015156130a857fe5b600202016000820160009054906101000a900465ffffffffffff168160000160006101000a81548165ffffffffffff021916908365ffffffffffff1602179055506000820160069054906101000a900463ffffffff168160000160066101000a81548163ffffffff021916908363ffffffff16021790555060008201600a9054906101000a900467ffffffffffffffff1681600001600a6101000a81548167ffffffffffffffff021916908367ffffffffffffffff1602179055506001820160009054906101000a900473ffffffffffffffffffffffffffffffffffffffff168160010160006101000a81548173ffffffffffffffffffffffffffffffffffffffff021916908373ffffffffffffffffffffffffffffffffffffffff16021790555090505080600760006003811015156131de57fe5b6002020160008201518160000160006101000a81548165ffffffffffff021916908365ffffffffffff16021790555060208201518160000160066101000a81548163ffffffff021916908363ffffffff160217905550604082015181600001600a6101000a81548167ffffffffffffffff021916908367ffffffffffffffff16021790555060608201518160010160006101000a81548173ffffffffffffffffffffffffffffffffffffffff021916908373ffffffffffffffffffffffffffffffffffffffff1602179055509050506137d3565b6133b581600760016003811015156132c657fe5b60020201608060405190810160405290816000820160009054906101000a900465ffffffffffff1665ffffffffffff1665ffffffffffff1681526020016000820160069054906101000a900463ffffffff1663ffffffff1663ffffffff16815260200160008201600a9054906101000a900467ffffffffffffffff1667ffffffffffffffff1667ffffffffffffffff1681526020016001820160009054906101000a900473ffffffffffffffffffffffffffffffffffffffff1673ffffffffffffffffffffffffffffffffffffffff1673ffffffffffffffffffffffffffffffffffffffff1681525050613ac5565b156135e857600760016003811015156133ca57fe5b60020201600760026003811015156133de57fe5b600202016000820160009054906101000a900465ffffffffffff168160000160006101000a81548165ffffffffffff021916908365ffffffffffff1602179055506000820160069054906101000a900463ffffffff168160000160066101000a81548163ffffffff021916908363ffffffff16021790555060008201600a9054906101000a900467ffffffffffffffff1681600001600a6101000a81548167ffffffffffffffff021916908367ffffffffffffffff1602179055506001820160009054906101000a900473ffffffffffffffffffffffffffffffffffffffff168160010160006101000a81548173ffffffffffffffffffffffffffffffffffffffff021916908373ffffffffffffffffffffffffffffffffffffffff160217905550905050806007600160038110151561351457fe5b6002020160008201518160000160006101000a81548165ffffffffffff021916908365ffffffffffff16021790555060208201518160000160066101000a81548163ffffffff021916908363ffffffff160217905550604082015181600001600a6101000a81548167ffffffffffffffff021916908367ffffffffffffffff16021790555060608201518160010160006101000a81548173ffffffffffffffffffffffffffffffffffffffff021916908373ffffffffffffffffffffffffffffffffffffffff1602179055509050506137d2565b6136eb81600760026003811015156135fc57fe5b60020201608060405190810160405290816000820160009054906101000a900465ffffffffffff1665ffffffffffff1665ffffffffffff1681526020016000820160069054906101000a900463ffffffff1663ffffffff1663ffffffff16815260200160008201600a9054906101000a900467ffffffffffffffff1667ffffffffffffffff1667ffffffffffffffff1681526020016001820160009054906101000a900473ffffffffffffffffffffffffffffffffffffffff1673ffffffffffffffffffffffffffffffffffffffff1673ffffffffffffffffffffffffffffffffffffffff1681525050613ac5565b156137d157806007600260038110151561370157fe5b6002020160008201518160000160006101000a81548165ffffffffffff021916908365ffffffffffff16021790555060208201518160000160066101000a81548163ffffffff021916908363ffffffff160217905550604082015181600001600a6101000a81548167ffffffffffffffff021916908367ffffffffffffffff16021790555060608201518160010160006101000a81548173ffffffffffffffffffffffffffffffffffffffff021916908373ffffffffffffffffffffffffffffffffffffffff1602179055509050505b5b5b82975050505050505050949350505050565b600073ffffffffffffffffffffffffffffffffffffffff168173ffffffffffffffffffffffffffffffffffffffff161415151561382157600080fd5b8073ffffffffffffffffffffffffffffffffffffffff166000809054906101000a900473ffffffffffffffffffffffffffffffffffffffff1673ffffffffffffffffffffffffffffffffffffffff167f8be0079c531659141344cd1fd0a4f28419497f9722a3daafe3b4186f6b6457e060405160405180910390a3806000806101000a81548173ffffffffffffffffffffffffffffffffffffffff021916908373ffffffffffffffffffffffffffffffffffffffff16021790555050565b600080600090506000809050600085905060008090505b603f8160ff161015613a4f5761390b81613c45565b925060006139198383612a73565b90506139258783612a73565b6fffffffffffffffffffffffffffffffff16816fffffffffffffffffffffffffffffffff161415613966578360ff16600263ffffffff160a85019450613a41565b6000816fffffffffffffffffffffffffffffffff16141515613a405760006002826fffffffffffffffffffffffffffffffff16146139a55760006139a8565b60015b600284020160ff16905060006001860190505b60068160ff161015613a3d57600060026139d760018403613cba565b0260ff168303905060028161ffff168115156139ef57fe5b0460026139fb84613cba565b0260ff160192506000613a0e8785613d2e565b90508015613a2757613a208785613d83565b9650613a2e565b5050613a3d565b505080806001019150506139bb565b50505b5b5080806001019150506138f6565b5082935050505092915050565b600080600090508567ffffffffffffffff168467ffffffffffffffff1611613a8657838603613a8a565b8584035b810190508467ffffffffffffffff168367ffffffffffffffff1611613ab157828503613ab5565b8483035b8101905080915050949350505050565b6000816020015163ffffffff16836020015163ffffffff161115613aec5760019050613c3f565b816020015163ffffffff16836020015163ffffffff161015613b115760009050613c3f565b816040015167ffffffffffffffff16836040015167ffffffffffffffff161015613b3e5760019050613c3f565b816040015167ffffffffffffffff16836040015167ffffffffffffffff161015613b6b5760009050613c3f565b816000015165ffffffffffff16836000015165ffffffffffff1614151515613c21576040517f08c379a00000000000000000000000000000000000000000000000000000000081526004018080602001828103825260268152602001807f5468697320656e7472792068617320616c726561647920636c61696d6564206181526020017f207072697a65000000000000000000000000000000000000000000000000000081525060400191505060405180910390fd5b816000015165ffffffffffff16836000015165ffffffffffff161090505b92915050565b600060208260ff161015613c5c5760009050613cb5565b60308260ff161015613c715760019050613cb5565b60388260ff161015613c865760029050613cb5565b603c8260ff161015613c9b5760039050613cb5565b603e8260ff161015613cb05760049050613cb5565b600590505b919050565b6000808260ff161415613cd05760009050613d29565b60018260ff161415613ce55760209050613d29565b60028260ff161415613cfa5760309050613d29565b60038260ff161415613d0f5760389050613d29565b60048260ff161415613d2457603c9050613d29565b603e90505b919050565b6000808261ffff1660026fffffffffffffffffffffffffffffffff160a9050600081857001000000000000000000000000000000009004166fffffffffffffffffffffffffffffffff16141591505092915050565b6000808261ffff1660026fffffffffffffffffffffffffffffffff160a90507fffffffffffffffffffffffffffffffffffffffffffffffffffffffffffffffff811890508070010000000000000000000000000000000002841691505092915050565b6040805190810160405280600073ffffffffffffffffffffffffffffffffffffffff168152602001600065ffffffffffff1681525090565b60806040519081016040528060006fffffffffffffffffffffffffffffffff19168152602001600060ff168152602001600060ff1681526020016000151581525090565b608060405190810160405280600065ffffffffffff168152602001600063ffffffff168152602001600067ffffffffffffffff168152602001600073ffffffffffffffffffffffffffffffffffffffff168152509056fea165627a7a72305820818a07b206f718b81568c5ef627f12ce11e7c3e47f4cfd2b7fc37ccfcb5a47e60029",
  "source": "pragma solidity ^0.5.0;\nimport \"./IERC20.sol\";\nimport \"./Ownable.sol\";\n\ncontract EthMadness is Ownable {\n    \n    // Represents the submission to the contest.\n    struct Entrant {\n        // The user who submitted this entry\n        address submitter;\n        \n        // The \"index\" of this entry. Used to break ties incase two submissions are the same. (earlier submission wins)\n        uint48 entryIndex;\n    }\n    \n    // Represents a current top score in the contest\n    struct TopScore {\n        // The index of this entry (used for tie-breakas a de-dups)\n        uint48 entryIndex;\n\n        // This bracket's score\n        uint32 score;\n\n        // The total point differential for this bracket\n        uint64 difference;\n\n        // The account which submitted this bracket\n        address submitter;\n    }\n    \n    // Represents the results of the contest. \n    struct Result {\n        // The encoded results of the tournament\n        bytes16 winners;\n\n        // Team A's score in the final\n        uint8 scoreA;\n\n        // Team B's score in the final\n        uint8 scoreB;\n\n        // Whether or not this is the final Results (used to tell if a vote is real or not)\n        bool isFinal;\n    }\n    \n    // Represents the various states that the contest will go through.\n    enum ContestState {\n        // The contest is open for people to submit entries. Oracles can also be added during this period.\n        OPEN_FOR_ENTRIES,\n        \n        // The tournament is in progress, no more entries can be received and no oracles can vote\n        TOURNAMENT_IN_PROGRESS,\n        \n        // The tournament is over and we're waiting for all the oracles to submit the results\n        WAITING_FOR_ORACLES,\n        \n        // The oracels have submitted the results and we're waiting for winners to claim their prize\n        WAITING_FOR_WINNING_CLAIMS,\n        \n        // The contest has completed and the winners have been paid out\n        COMPLETED\n    }\n    \n    // Maximum number of entries that will be allowed\n    uint constant MAX_ENTRIES = 2**48;\n    \n    // The number of entries which have been received.\n    uint48 entryCount = 0;\n    \n    // Map of the encoded entry to the user who crreated it.\n    mapping (uint256 => Entrant) public entries;\n    \n    // The times where we're allowed to transition the contract's state\n    mapping (uint => uint) public transitionTimes;\n    \n    // The current state of the contest\n    ContestState public currentState;\n    \n    // The recorded votes of our oracles\n    mapping (address => Result) public oracleVotes;\n    \n    // The oracles who will submit the results of the tournament\n    address[] public oracles;\n    \n    // The maximum number of oracles we'll allow vote in our contest\n    uint constant MAX_ORACLES = 10;\n    \n    // The final result of the tournament that the oracles agreed on\n    Result public finalResult;\n    \n    // Keeps the current top 3 best scores and who submitted them. When the contest ends, they'll be paid out\n    TopScore[3] public topThree;\n    \n    // The address of the ERC20 token that defines our prize\n    address public prizeERC20TokenAddress;\n    \n    // The amount of the prize to reward\n    uint public prizeAmount;\n    \n    // Event emitted when a new entry gets submitted to the contest\n    event EntrySubmitted(\n        // The account who submitted this bracket\n        address indexed submitter,\n\n        // A compressed representation of the entry combining the picks and final game scores\n        uint256 indexed entryCompressed,\n\n        // The order this entry was received. Used for tiebreaks\n        uint48 indexed entryIndex,\n\n        // Optional bracket name provided by the submitter\n        string bracketName\n    );\n\n    // Constructs a new instance of the EthMadness contract with the given transition times\n    constructor(uint[] memory times, address erc20Token, uint erc20Amount) public {\n        \n        // Initialize the oracles array with the sender's address\n        oracles = [msg.sender];\n        \n        // Set up our prize info\n        prizeERC20TokenAddress = erc20Token;\n        prizeAmount = erc20Amount;\n        \n        // Set up our transition times\n        require(times.length == 4);\n        transitionTimes[uint(ContestState.TOURNAMENT_IN_PROGRESS)] = times[0];\n        transitionTimes[uint(ContestState.WAITING_FOR_ORACLES)] = times[1];\n        transitionTimes[uint(ContestState.WAITING_FOR_WINNING_CLAIMS)] = times[2];\n        transitionTimes[uint(ContestState.COMPLETED)] = times[3];\n        \n        // The initial state should be allowing people to make entries\n        currentState = ContestState.OPEN_FOR_ENTRIES;\n    }\n\n    // Gets the total number of entries we've received\n    function getEntryCount() public view returns (uint256) {\n        return entryCount;\n    }\n    \n    // Gets the number of Oracles we have registered\n    function getOracleCount() public view returns(uint256) {\n        return oracles.length;\n    }\n    \n    // Returns the transition times for our contest\n    function getTransitionTimes() public view returns (uint256, uint256, uint256, uint256) {\n        return (\n            transitionTimes[uint(ContestState.TOURNAMENT_IN_PROGRESS)],\n            transitionTimes[uint(ContestState.WAITING_FOR_ORACLES)],\n            transitionTimes[uint(ContestState.WAITING_FOR_WINNING_CLAIMS)],\n            transitionTimes[uint(ContestState.COMPLETED)]\n        );\n    }\n    \n    // Internal function for advancing the state of the bracket\n    function advanceState(ContestState nextState) private {\n        require(uint(nextState) == uint(currentState) + 1, \"Can only advance state by 1\");\n        require(now > transitionTimes[uint(nextState)], \"Transition time hasn't happened yet\");\n        \n        currentState = nextState;\n    }\n\n    // Helper to make sure the picks submitted are legal\n    function arePicksOrResultsValid(bytes16 picksOrResults) public pure returns (bool) {\n        // Go through and make sure that this entry has 1 pick for each game\n        for (uint8 gameId = 0; gameId < 63; gameId++) {\n            uint128 currentPick = extractResult(picksOrResults, gameId);\n            if (currentPick != 2 && currentPick != 1) {\n                return false;\n            }\n        }\n\n        return true;\n    }\n    \n    // Submits a new entry to the tournament\n    function submitEntry(bytes16 picks, uint64 scoreA, uint64 scoreB, string memory bracketName) public {\n        require(currentState == ContestState.OPEN_FOR_ENTRIES, \"Must be in the open for entries state\");\n        require(arePicksOrResultsValid(picks), \"The supplied picks are not valid\");\n\n        // Do some work to encode the picks and scores into a single uint256 which becomes a key\n        uint256 scoreAShifted = uint256(scoreA) * (2 ** (24 * 8));\n        uint256 scoreBShifted = uint256(scoreB) * (2 ** (16 * 8));\n        uint256 picksAsNumber = uint128(picks);\n        uint256 entryCompressed = scoreAShifted | scoreBShifted | picksAsNumber;\n\n        require(entries[entryCompressed].submitter == address(0), \"This exact bracket & score has already been submitted\");\n        \n        // Emit the event that this entry was received and save the entry\n        emit EntrySubmitted(msg.sender, entryCompressed, entryCount, bracketName);\n        Entrant memory entrant = Entrant(msg.sender, entryCount);\n        entries[entryCompressed] = entrant;\n        entryCount++;\n    }\n\n    // Adds an allowerd oracle who will vote on the results of the contest. Only the contract owner can do this\n    // and it can only be done while the tournament is still open for entries\n    function addOracle(address oracle) public onlyOwner {\n        require(currentState == ContestState.OPEN_FOR_ENTRIES, \"Must be accepting entries\");\n        require(oracles.length < MAX_ORACLES - 1, \"Must be less than max number of oracles\");\n        oracles.push(oracle);\n    }\n\n    // In case something goes wrong, allow the owner to eject from the contract\n    // but only while picks are still being made or after the contest completes\n    function refundRemaining(uint256 amount) public onlyOwner {\n        require(currentState == ContestState.OPEN_FOR_ENTRIES || currentState == ContestState.COMPLETED, \"Must be accepting entries\");\n        \n        IERC20 erc20 = IERC20(prizeERC20TokenAddress);\n        erc20.transfer(msg.sender, amount);\n    }\n    \n    // Submits a new oracle's vote describing the results of the tournament\n    function submitOracleVote(uint oracleIndex, bytes16 winners, uint8 scoreA, uint8 scoreB) public {\n        require(currentState == ContestState.WAITING_FOR_ORACLES, \"Must be in waiting for oracles state\");\n        require(oracles[oracleIndex] == msg.sender, \"Wrong oracle index\");\n        require(arePicksOrResultsValid(winners), \"Results are not valid\");\n        oracleVotes[msg.sender] = Result(winners, scoreA, scoreB, true);\n    }\n    \n    // Close the voting and set the final result. Pass in what should be the consensus agreed by the\n    // 70% of the oracles\n    function closeOracleVoting(bytes16 winners, uint8 scoreA, uint8 scoreB) public {\n        require(currentState == ContestState.WAITING_FOR_ORACLES);\n\n        // Count up how many oracles agree with this result\n        uint confirmingOracles = 0;\n        for (uint i = 0; i < oracles.length; i++) {\n            Result memory oracleVote = oracleVotes[oracles[i]];\n            if (oracleVote.isFinal &&\n                oracleVote.winners == winners &&\n                oracleVote.scoreA == scoreA &&\n                oracleVote.scoreB == scoreB) {\n\n                confirmingOracles++;\n            }\n        }\n        \n        // Require 70%+ of Oracles to have voted and agree on the result\n        uint percentAggreement = (confirmingOracles * 100) / oracles.length;\n        require(percentAggreement > 70, \"To close oracle voting, > 70% of oracles must agree\");\n        \n        // Change the state and set our final result which will be used to compute scores\n        advanceState(ContestState.WAITING_FOR_WINNING_CLAIMS);\n        finalResult = Result(winners, scoreA, scoreB, true);\n    }\n    \n    // Closes the entry period and marks that the actual tournament is in progress\n    function markTournamentInProgress() public {\n        advanceState(ContestState.TOURNAMENT_IN_PROGRESS);\n        \n        require(oracles.length > 0, \"Must have at least 1 oracle registered\");\n        \n        // Require that we have the amount of funds locked in the contract we expect\n        IERC20 erc20 = IERC20(prizeERC20TokenAddress);\n        require(erc20.balanceOf(address(this)) >= prizeAmount, \"Must have a balance in this contract\");\n    }\n    \n    // Mark that the tournament has completed and oracles can start submitting results\n    function markTournamentFinished() public {\n        advanceState(ContestState.WAITING_FOR_ORACLES);\n    }\n    \n    // After the oracles have voted and winners have claimed their prizes, this closes the contest and\n    // pays out the winnings to the 3 winners\n    function closeContestAndPayWinners() public {\n        advanceState(ContestState.COMPLETED);\n        require(topThree[0].submitter != address(0), \"Not enough claims\");\n        require(topThree[1].submitter != address(0), \"Not enough claims\");\n        require(topThree[2].submitter != address(0), \"Not enough claims\");\n        \n        uint firstPrize = (prizeAmount * 70) / 100;\n        uint secondPrize = (prizeAmount * 20) / 100;\n        uint thirdPrize = (prizeAmount * 10) / 100;\n        IERC20 erc20 = IERC20(prizeERC20TokenAddress);\n        erc20.transfer(topThree[0].submitter, firstPrize);\n        erc20.transfer(topThree[1].submitter, secondPrize);\n        erc20.transfer(topThree[2].submitter, thirdPrize);\n    }\n    \n    // Scores an entry and places it in the right sort order\n    function scoreAndSortEntry(uint256 entryCompressed, bytes16 results, uint64 scoreAActual, uint64 scoreBActual) private returns (uint32) {\n        require(currentState == ContestState.WAITING_FOR_WINNING_CLAIMS, \"Must be in the waiting for claims state\");\n        require(entries[entryCompressed].submitter != address(0), \"The entry must have actually been submitted\");\n\n        // Pull out the pick information from the compressed entry\n        bytes16 picks = bytes16(uint128((entryCompressed & uint256((2 ** 128) - 1))));\n        uint256 shifted = entryCompressed / (2 ** 128); // shift over 128 bits\n        uint64 scoreA = uint64((shifted & uint256((2 ** 64) - 1)));\n        shifted = entryCompressed / (2 ** 192);\n        uint64 scoreB = uint64((shifted & uint256((2 ** 64) - 1)));\n\n        // Compute the score and the total difference\n        uint32 score = scoreEntry(picks, results);\n        uint64 difference = computeFinalGameDifference(scoreA, scoreB, scoreAActual, scoreBActual);\n\n        // Make a score and place it in the right sort order\n        TopScore memory scoreResult = TopScore(entries[entryCompressed].entryIndex, score, difference, entries[entryCompressed].submitter);\n        if (isScoreBetter(scoreResult, topThree[0])) {\n            topThree[2] = topThree[1];\n            topThree[1] = topThree[0];\n            topThree[0] = scoreResult;\n        } else if (isScoreBetter(scoreResult, topThree[1])) {\n            topThree[2] = topThree[1];\n            topThree[1] = scoreResult;\n        } else if (isScoreBetter(scoreResult, topThree[2])) {\n            topThree[2] = scoreResult;\n        }\n        \n        return score;\n    }\n    \n    function claimTopEntry(uint256 entryCompressed) public {\n        require(currentState == ContestState.WAITING_FOR_WINNING_CLAIMS, \"Must be in the waiting for winners state\");\n        require(finalResult.isFinal, \"The final result must be marked as final\");\n        scoreAndSortEntry(entryCompressed, finalResult.winners, finalResult.scoreA, finalResult.scoreB);\n    }\n    \n    function computeFinalGameDifference(\n        uint64 scoreAGuess, uint64 scoreBGuess, uint64 scoreAActual, uint64 scoreBActual) private pure returns (uint64) {\n        \n        // Don't worry about overflow here, not much you can really do with it\n        uint64 difference = 0;\n        difference += ((scoreAActual > scoreAGuess) ? (scoreAActual - scoreAGuess) : (scoreAGuess - scoreAActual));\n        difference += ((scoreBActual > scoreBGuess) ? (scoreBActual - scoreBGuess) : (scoreBGuess - scoreBActual));\n        return difference;\n    }\n    \n    // Gets the bit at index n in a\n    function getBit16(bytes16 a, uint16 n) private pure returns (bool) {\n        uint128 mask = uint128(2) ** n;\n        return uint128(a) & mask != 0;\n    }\n    \n    // Sets the bit at index n to 1 in a\n    function setBit16(bytes16 a, uint16 n) private pure returns (bytes16) {\n        uint128 mask = uint128(2) ** n;\n        return a | bytes16(mask);\n    }\n    \n    // Sets the bit at index n to 0 in a\n    function clearBit16(bytes16 a, uint16 n) private pure returns (bytes16) {\n        uint128 mask = uint128(2) ** n;\n        mask = mask ^ uint128(-1);\n        return a & bytes16(mask);\n    }\n    \n    // Returns either 0 if there is no possible winner, 1 if team B is chosen, or 2 if team A is chosen\n    function extractResult(bytes16 a, uint8 n) private pure returns (uint128) {\n        uint128 mask = uint128(0x00000000000000000000000000000003) * uint128(2) ** (n * 2);\n        uint128 masked = uint128(a) & mask;\n        \n        // Shift back to get either 0, 1 or 2\n        return (masked / (uint128(2) ** (n * 2)));\n    }\n    \n    // Gets which round a game belongs to based on its id\n    function getRoundForGame(uint8 gameId) private pure returns (uint8) {\n        if (gameId < 32) {\n            return 0;\n        } else if (gameId < 48) {\n            return 1;\n        } else if (gameId < 56) {\n            return 2;\n        } else if (gameId < 60) {\n            return 3;\n        } else if (gameId < 62) {\n            return 4;\n        } else {\n            return 5;\n        }\n    }\n    \n    // Gets the first game in a round given the round number\n    function getFirstGameIdOfRound(uint8 round) private pure returns (uint8) {\n        if (round == 0) {\n            return 0;\n        } else if (round == 1) {\n            return 32;\n        } else if (round == 2) {\n            return 48;\n        } else if (round == 3) {\n            return 56;\n        } else if (round == 4) {\n            return 60;\n        } else {\n            return 62;\n        }\n    }\n    \n    // Looks at two scores and decided whether newScore is a better score than old score\n    function isScoreBetter(TopScore memory newScore, TopScore memory oldScore) private pure returns (bool) {\n        if (newScore.score > oldScore.score) {\n            return true;\n        }\n        \n        if (newScore.score < oldScore.score) {\n            return false;\n        }\n        \n        // Case where we have a tie\n        if (newScore.difference < oldScore.difference) {\n            return true;\n        }\n        \n        if (newScore.difference < oldScore.difference) {\n            return false;\n        }\n\n        require(newScore.entryIndex != oldScore.entryIndex, \"This entry has already claimed a prize\");\n        \n        // Crazy case where we have the same score and same diference. Return the earlier entry as the winnner\n        return newScore.entryIndex < oldScore.entryIndex;\n    }\n    \n    // Scores an entry given the picks and the results\n    function scoreEntry(bytes16 picks, bytes16 results) private pure returns (uint32) {\n        uint32 score = 0;\n        uint8 round = 0;\n        bytes16 currentPicks = picks;\n        for (uint8 gameId = 0; gameId < 63; gameId++) {\n            \n            // Update which round we're in when on the transitions\n            round = getRoundForGame(gameId);\n            \n            uint128 currentPick = extractResult(currentPicks, gameId);\n            if (currentPick == extractResult(results, gameId)) {\n                score += (uint32(2) ** round);\n            } else if (currentPick != 0) { // If we actually had a pick, propagate forward\n                // Mark all the future currentPicks which required this team winning as null\n                uint16 currentPickId = (gameId * 2) + (currentPick == 2 ? 1 : 0);\n                for (uint8 futureRound = round + 1; futureRound < 6; futureRound++) {\n                    uint16 currentPickOffset = currentPickId - (getFirstGameIdOfRound(futureRound - 1) * 2);\n                    currentPickId = (getFirstGameIdOfRound(futureRound) * 2) + (currentPickOffset / 2);\n                    \n                    bool pickedLoser = getBit16(currentPicks, currentPickId);\n                    if (pickedLoser) {\n                        currentPicks = clearBit16(currentPicks, currentPickId);\n                    } else {\n                        break;\n                    }\n                }\n            }\n        }\n        \n        return score;\n    }\n}\n",
  "sourcePath": "/Users/sdesmond/git/eth-madness/contracts/EthMadness.sol",
  "compiler": {
    "name": "solc",
    "version": "0.5.0+commit.1d4f565a.Emscripten.clang"
  },
  "schemaVersion": "3.0.2",
  "updatedAt": "2019-03-19T21:00:17.457Z",
  "devdoc": {
    "methods": {
      "isOwner()": {
        "return": "true if `msg.sender` is the owner of the contract."
      },
      "owner()": {
        "return": "the address of the owner."
      },
      "renounceOwnership()": {
        "details": "Allows the current owner to relinquish control of the contract. It will not be possible to call the functions with the `onlyOwner` modifier anymore."
      },
      "transferOwnership(address)": {
        "details": "Allows the current owner to transfer control of the contract to a newOwner.",
        "params": {
          "newOwner": "The address to transfer ownership to."
        }
      }
    }
  },
  "userdoc": {
    "methods": {
      "renounceOwnership()": {
        "notice": "Renouncing ownership will leave the contract without an owner, thereby removing any functionality that is only available to the owner."
      }
    }
  }
}